:100000000C94ED010C941E020C941E020C941E0222
:100010000C941E020C941E020C941E020C941E02E0
:100020000C941E020C9431140C9431140C94311461
:100030000C941E020C941E020C941E020C941E02C0
:100040000C941E020C941E020C941E020C941E02B0
:100050000C941E020C941E020C941E020C94A327F6
:100060000C941E020C94A8190C947E190C941E0278
:100070000C941E020C941E020C941E020C941E0280
:100080000C941E020C941E020C941E020C941E0270
:100090000C941E020C941E020C941E020C943C251F
:1000A0000C941E020C941E020C941E020C941E0250
:1000B0000C941E020C941E020C941E020C941E0240
:1000C0000C941E020C941E020C941E020C941E0230
:1000D0000C941E020C941E020C941E020C941E0220
:1000E0000C941E02450C4F0C5C0C6E0C820C890C9F
:1000F000900C980CAA0C9D26A0268F269326972656
:10010000D726A426A826AE26B226B626BC26C0260A
:10011000C426D726CA26CE26D2260C94500A0C9482
:1001200045160C94A9020C94A0260C94C3160C94AA
:10013000FC0F0C940E0E0C948B170C94521A0C940A
:10014000BC120C949D260C94E6190C94C1100C94CE
:1001500051120C940E090C940F110C947C160C94F3
:10016000D7260C94980C0C944A170C94B6260C9431
:100170006D170C941D100C944A1E0C9472120C9462
:10018000E8240C9437160C947F0D0C94070D0C94F6
:10019000900C0C94F50D0C94ED270C9431170C94E5
:1001A000B8240C9471020C9414100C9471170C94D4
:1001B000BC260C94C4260C94A8260C94C0260C943F
:1001C000B0240C944D0F0C94460A0C9429170C94EF
:1001D000A4260C945E1A0C94D2130C9432170C942F
:1001E000450C0C946E0C0C943F0D0C94D2260C9480
:1001F000262D0C9493260C94AA0C0C941E170C9488
:1002000023160C9436190C945C0C0C94E9150C9480
:1002100033100C94CE260C94B2260C941B100C9424
:1002200097260C9493240C9492240C941F090C94FC
:10023000760F0C9448170C94460E0C94F00C0C940A
:100240000A1A0C944F0C0C946C100C9476070C94B6
:10025000F10C0C946D100C94820C0C9454100C94B2
:100260005C1A0C9404100C9447100C9492020C9499
:100270008F260C94AE260C94D9100C9494170C94E1
:100280002E0F0C94A1240C94CA260C9414160C94D2
:10029000DC1C0C943C110C94FA100C94A8020C94E5
:1002A000890C0C9400107C3C3E5E2B3D3F2F5B5D27
:1002B0003B2C2A225C0000002200250028002B0095
:1002C0002E003100340002010000050108010B017D
:1002D000000020002300260029002C002F003200FF
:1002E00000010000030106010901050505050705D8
:1002F00008080808020202020A0A080804040404A2
:1003000001010101010101010303030303030303CD
:10031000040707070C0C0C0C0C0C0C0C020202025C
:1003200006060606060606060B0B0B0B0B0B0B0B45
:1003300001021020200808102040102040800201F7
:1003400002010804020101020408102040808040DC
:1003500020100804020180040201804020100804DB
:100360000201080402010102040810204080010279
:1003700004081020408000000A0B02090C0D0E0832
:10038000070304010000000000000000000000005E
:10039000000000000000000000000000000000005D
:1003A000000012111000000000000000000000001A
:1003B000000000000000000000000000000021001C
:1003C000240027002A002D00300033000101000026
:1003D000040107010A01262DED2711241FBECFEFCE
:1003E000D1E2DEBFCDBF00E00CBF14E0A0E0B2E080
:1003F000E4EAF4E600E00BBF02C007900D92A834D7
:10040000B107D9F721E1A8E4B4E001C01D92A531FC
:10041000B207E1F711E0CCEED1E000E006C0219791
:100420000109802FFE010E943B2FCB3ED10780E0C7
:100430000807A9F70E94F7270C9440320C9400009B
:10044000FC01DB0112968D919C911397938382831B
:100450008CEC92E09183808314968C911497848322
:1004600015968C911597858316964D915D916D919A
:100470007C91199746835783608771871A964D91AF
:100480005D916D917C911D97428753876487758735
:100490001E964D915D916D917C915197468757873E
:1004A000608B718B52968C915297828B53964D91A3
:1004B0005D916D917C915697438B548B658B768BB8
:1004C00057964D915D916D917C915A97478B508FC6
:1004D000618F728F5B968D919C915C97948F838FC7
:1004E0000895DC015996ED91FC915A973097B9F037
:1004F00083899489A589B6894285538564857585E4
:10050000841B950BA60BB70B811520E89207A1055C
:10051000B10538F08FEF9FE7A0E0B0E0089580E0EC
:1005200090E00895CF93DF931F92CDB7DEB7698334
:10053000DC01ED91FC910280F381E02D41E050E07F
:10054000BE016F5F7F4F19950F90DF91CF91089596
:10055000089580E090E00895EF92FF920F931F932B
:10056000CF93DF93EC017B018A011B821A8288EE14
:1005700093E0A0E0B0E08C839D83AE83BF838AE1EB
:1005800092E0998388838DE190E00E94572F9A8FA3
:10059000898F009779F02DE1F701DC0101900D9230
:1005A0002A95E1F74CE050E0B801CE010C960E948C
:1005B0008F31188EDF91CF911F910F91FF90EF90A7
:1005C00008954F925F926F927F92AF92BF92CF92B7
:1005D000DF92EF92FF920F931F93CF93DF9300D0A0
:1005E0001F92CDB7DEB78C0149835A836B837C831E
:1005F0005901C12CD12C7601412C82E0582E612C5E
:10060000712C49815A816B817C819E012F5F3F4F04
:10061000C8010E946515882351F1D301C201F80178
:10062000058404C0880F991FAA1FBB1F0A94D2F724
:10063000C80ED91EEA1EFB1E49815A816B817C813E
:100640008789803129F088EF9FEFAFEFBFE004C0CA
:1006500088EF9FEFA0E0B0E0481759076A077B07D3
:1006600080F2F501C082D182E282F38281E00F90B4
:100670000F900F900F90DF91CF911F910F91FF90EE
:10068000EF90DF90CF90BF90AF907F906F905F9092
:100690004F9008958F929F92AF92BF92CF92DF9228
:1006A000EF92FF920F931F93CF93DF93EC018D8115
:1006B000811102C080E077C00B891C892D893E8999
:1006C0000417150726073707A8F36A017B01823054
:1006D00029F4CA86DB86EC86FD860DC0C114D104E0
:1006E000E104F10451F41E821F82188619861A86CD
:1006F0001B861C861D8681E056C08A849B84AC8440
:10070000BD84EB8DFC8D258530E0275F3F4FB50123
:10071000A4014150510961097109022E04C0769566
:100720006795579547950A94D2F7D701C601019767
:10073000A109B10904C0B695A795979587952A9503
:10074000D2F784179507A607B70720F089288A28CB
:100750008B2849F44F89588D698D7A8D4E835F833C
:100760006887798704C0841B950BA60BB70B4C01D7
:100770005D018E010A5F1F4F81149104A104B10431
:1007800009F4A7CF4E815F816885798598018B8DAB
:100790009C8D0E94651591E0891A9108A108B10805
:1007A0008111EACF87CFDF91CF911F910F91FF90F9
:1007B000EF90DF90CF90BF90AF909F908F90089573
:1007C0003F924F925F926F927F928F929F92AF92E1
:1007D000BF92CF92DF92EF92FF920F931F93CF932E
:1007E000DF93CDB7DEB72C970FB6F894DEBF0FBE00
:1007F000CDBF5C01DC015B968D909C905C9716965A
:10080000CD90DD90ED90FC901997C114D104E104D6
:10081000F10439F0BFEFCB1ADB0AEB0AFB0A312CEB
:1008200007C0F401C080D180E280F3803324339488
:10083000F40181859285A385B4859C01AD012F5F6C
:100840003F4F4F4F5F4F29873A874B875C87260181
:1008500037011D821E821F821886F40181859285D0
:10086000A385B4852D813E814F815885281739078E
:100870004A075B0708F063C089859A85AB85BC850C
:100880008C159D05AE05BF0550F482E0C82ED12C15
:10089000E12CF12C92E0492E512C612C712C9E01FF
:1008A0002F5F3F4FB701A601C4010E946515882341
:1008B00009F445C089819A81AB81BC81892B8A2B3F
:1008C0008B2B41F0260137019FEF491A590A690A1B
:1008D000790A05C0C414D504E604F70491F02D810B
:1008E0003E814F8158852F5F3F4F4F4F5F4F2D8384
:1008F0003E834F8358873FEFC31AD30AE30AF30AB4
:10090000ACCF0FEF1FEF2FEF3FE0B301A201C40107
:100910000E94C514882399F0D50116964D915D91DA
:100920006D917C911997411551056105710549F04B
:1009300093018201C4010E94C514811102C080E0AC
:100940002AC0D50116964D925D926D927C921997B0
:10095000332051F0D301C2010196A11DB11DF40154
:1009600080839183A283B383F5018789908DA18DC4
:10097000B28D892B8A2B8B2B69F4D50157964D921A
:100980005D926D927C925A9714968C911497806820
:1009900014968C9381E02C960FB6F894DEBF0FBEB0
:1009A000CDBFDF91CF911F910F91FF90EF90DF901E
:1009B000CF90BF90AF909F908F907F906F905F90FF
:1009C0004F903F900895089561E0FC0184810E945A
:1009D0006E268091480481111092480408958EBDBE
:1009E00000000DB407FEFDCF8EB508958FEF0C9477
:1009F000EF040F931F93CF93DF93EB010E94972790
:100A00008B010E94F6048F3F49F00E949727601BDC
:100A1000710B6C177D07A8F380E001C081E0DF91C6
:100A2000CF911F910F910895CF93DF93EC018E81A9
:100A3000882389F08F8198859C012F5F3F4F3887ED
:100A40002F838230924018F40E94F604F3CFCE0137
:100A50000E94E4041E82DF91CF9108958CBD9DBD5C
:100A60000895CF93DF93EC0180914804811109C070
:100A700081E08093480480911507909116070E94A9
:100A80002E0560E08C81DF91CF910C946E26CF9281
:100A9000DF92FF920F931F93CF93DF9300D01F92AB
:100AA000CDB7DEB76C01F62E29833A834B835C8386
:100AB0000E941405C6010E9431056CE271E0C60176
:100AC0000E94F9048F2D80640E94EF0408E110E079
:100AD0005C814B813A812981DA01C901002E04C071
:100AE000B695A795979587950A94D2F729833A8367
:100AF0004B835C830E94EF040850110929813A81DD
:100B00004B815C81083F8FEF180731F7FF2029F0F8
:100B1000E8E0FE1204C087E803C085E901C08FEF5A
:100B20000E94EF0410E00E94F604F601828787FF1E
:100B300004C01F3F11F01F5FF6CF0F900F900F9072
:100B40000F90DF91CF911F910F91FF90DF90CF9089
:100B50000895AF92BF92CF92DF92EF92FF920F93E0
:100B60001F93CF93DF93EC016901C801820F931F9C
:100B70008130924008F070C08E81882371F08881A6
:100B80009981AA81BB81481759076A077B0729F415
:100B90008F819885C816D906B0F5488359836A8332
:100BA0007B838B85833039F089E0440F551F661FA6
:100BB000771F8A95D1F79A01AB0161E1CE010E94BE
:100BC0004705882319F083E08D8346C00E9497274C
:100BD0005B010E94F6048A878F3F49F40E949727A1
:100BE0006A197B096D327140A0F38FE003C08E3F1C
:100BF00031F08DE08D83CE010E94E4042DC0188673
:100C00001F8281E08E838F8198858C159D0540F42D
:100C10000E94F6048F819885019698878F83F3CF81
:100C20006701E00EF11ECE14DF0431F00E94F604DD
:100C3000F60181936F01F7CF8F819885080F191FF7
:100C400018870F838985882319F00115124048F011
:100C5000CE010E94140505C0CE010E94E40480E08C
:100C600001C081E0DF91CF911F910F91FF90EF9034
:100C7000DF90CF90BF90AF900895EF92FF920F93C7
:100C80001F93CF93DF93EC01790141155105610565
:100C9000710511F482E13CC08B85833039F089E025
:100CA000440F551F661F771F8A95D1F79A01AB0134
:100CB00068E1CE010E944705882311F084E028C036
:100CC0008EEF0E94EF0487018EEFF81AF8018191F0
:100CD0008F010E94EF040E151F05C1F78FEF0E94D0
:100CE000EF048FEF0E94EF040E94F6048A878F7151
:100CF000853031F081E18D83CE010E94E40409C08A
:100D000068E572E0CE010E94F904811107C085E117
:100D10008D83CE010E94E40480E013C020E030E027
:100D2000A9016DE0CE010E944705811104C00E9417
:100D3000F604882311F084E1EBCFCE010E94E40495
:100D400081E0DF91CF911F910F91FF90EF90089577
:100D50008091FA048823A9F1409108025091090278
:100D600060910A0270910B022BEF34E08091E8044D
:100D70009091E9040E943D06811102C080E008952F
:100D800040914F045091500460915104709152046D
:100D9000411551056105710591F02BEF34E080910B
:100DA000E8049091E9040E943D06882339F31092EB
:100DB0004F04109250041092510410925204109259
:100DC000FA0481E008958F929F92AF92BF92EF92C2
:100DD000FF920F931F93CF934B015C01C42F80911F
:100DE000080290910902A0910A02B0910B028815A5
:100DF0009905AA05BB0501F10E94A806811102C050
:100E000080E020C08BEFE82E84E0F82E00E012E0B6
:100E100020E030E0B501A4018091E8049091E9045C
:100E20000E94A905882361F380920802909209022A
:100E3000A0920A02B0920B028091FA04C82BC093D0
:100E4000FA0481E0CF911F910F91FF90EF90BF9036
:100E5000AF909F908F900895CF93DF93EC018D8199
:100E60008823A1F18C8187FF2DC06E857F858889BD
:100E7000998941E00E94E306882341F1EA8980E2F2
:100E8000E89FF0011124DF01A550BB4F1097F1F04E
:100E90008D81823050F44B895C896D897E895C96A6
:100EA0004D935D936D937C935F978F89988DA98DFA
:100EB000BA8DE550FB4F938F828FB58BA48B8C81BD
:100EC0008F778C83DF91CF910C94A80680E0DF911F
:100ED000CF910895CF93DF93EC010E942C078823D4
:100EE00011F01D8281E0DF91CF910895FC01818D89
:100EF000928D009711F00C942C0708952F923F9239
:100F00004F925F926F927F928F929F92AF92BF9219
:100F1000CF92DF92EF92FF920F931F93CF93DF93C5
:100F200000D01F92CDB7DEB78C015B011A01DC0146
:100F300015968C9115978130C9F414968C9181FF88
:100F400015C082FF1BC0F8014389548965897689E1
:100F500082859385A485B58584179507A607B7076D
:100F600069F0C8010E944A03811108C081E090E045
:100F7000F8019383828380E090E039C1610183C0EE
:100F8000D8015B968D919C915C97FC012481215046
:100F90002A013B0139E076946794579447943A9537
:100FA000D1F7722E74207A01F1E0FF22772009F444
:100FB00076C080E092E08E199F0946018C159D0550
:100FC00008F44C01D8015B962D913C915C971696E4
:100FD0008D919D910D90BC91A02D0297A109B10911
:100FE000F901058404C0880F991FAA1FBB1F0A942A
:100FF000D2F74685578560897189840F951FA61F92
:10100000B71F9C01AD01270D311D411D511D290147
:101010003A01811432E0930609F088C080910802F9
:1010200090910902A0910A02B0910B0284159505D6
:10103000A605B70559F48FEF9FEFDC0180930802F6
:1010400090930902A0930A02B0930B029501B30199
:10105000A2018091E8049091E9040E943D06882352
:1010600009F484CF9EEFB91AC818D908F80182850F
:101070009385A485B585880D991DA11DB11D828715
:101080009387A487B587D8011A964D915D916D918C
:101090007C911D97C114D10409F072CF87C0E1146F
:1010A000F10409F086CF16964D915D916D917C917A
:1010B0001997411551056105710559F457968D91A0
:1010C0009D910D90BC91A02D0097A105B10541F512
:1010D00021C09E012F5F3F4F0E946515882309F4B0
:1010E0004BCF89819A81AB81BC81F801238D348DEE
:1010F000F9012789203129F048EF5FEF6FEF7FE09A
:1011000004C048EF5FEF60E070E084179507A60722
:10111000B70730F0C8010E94E00381114ACF26CF03
:10112000F80186839783A087B18743CFE114F10448
:1011300029F5D8011A964D915D916D917C911D977D
:1011400053968D919D910D90BC91A02D48175907F4
:101150006A077B0798F00E94A806882309F406CF47
:10116000409208025092090260920A0270920B02A9
:101170008091FA0481608093FA0408C041E0C301C1
:10118000B2010E94E306882309F4F0CED501F701ED
:10119000E550FB4FCF01880D991DE817F90719F0AD
:1011A0002D912193FACFA80CB91C5ECF53968D9147
:1011B0009D910D90BC91A02D84179507A607B707A8
:1011C00040F4F801438B548B658B768B8481806867
:1011D0008483D80114968C9183FD02C0C10107C09D
:1011E000C8010E942C07882309F4C0CEF7CF0F90C6
:1011F0000F900F900F90DF91CF911F910F91FF9063
:10120000EF90DF90CF90BF90AF909F908F907F90A6
:101210006F905F904F903F902F900895CF93DF9302
:101220001F92CDB7DEB7698341E050E0BE016F5F2A
:101230007F4F0E947E070F90DF91CF910895CF934B
:10124000DF93EC01898D9A8D009739F481E090E06D
:101250009B838A8380E090E00BC0FC0113821282A2
:101260000E947E07E98DFA8D22813381232B71F74D
:10127000DF91CF9108952F923F924F925F926F929C
:101280007F928F929F92AF92BF92CF92DF92EF9216
:10129000FF920F931F93CF93DF931F921F92CDB7AF
:1012A000DEB7FC018581882309F4D9C0848180FFE1
:1012B000D6C021E02A83438954896589768982854D
:1012C0009385A485B585481759076A077B0709F4F4
:1012D0001A826F013A81832F90E0DE0111964D0151
:1012E0003F01B6E06B0E711C892B09F47DC0D6015D
:1012F0001A964D915D916D917C911D975A01B1E0C7
:10130000BB22F60125811A012B0189E056944794EE
:10131000379427948A95D1F7838D948D223061F488
:10132000FC01828D938DA48DB58DBC01CD01620D24
:10133000731D841D951D45C0DC0114961C91115030
:101340001221A114B104D1F4111118C0452B462B60
:10135000472B51F4F6018789908DA18DB28D86833C
:101360009783A087B1870AC04681578160857185C0
:1013700093010E946515882309F471C0F601238D3D
:10138000348D86819781A085B1850297A109B10925
:10139000AC01BD01F901058404C0440F551F661F4F
:1013A000771F0A94D2F786859785A089B189840F23
:1013B000951FA61FB71FBC01CD01610F711D811DB7
:1013C000911DD60114962C9126FF14C0009108029D
:1013D0001091090220910A0230910B0260177107E7
:1013E0008207930751F506C0FA81FF23C1F1898175
:1013F00090E037C040E00E94E306882381F1F501C8
:10140000E550FB4FD401CF010196E817F90719F019
:1014100021912D93FACFEFEF8E1A9E0AF601828565
:101420009385A485B5850196A11DB11D82879387FB
:10143000A487B58780E090E057CF740101E010E009
:101440009501AB01BC018091E8049091E9040E94F0
:10145000A905882321F0BFEF8B1A9B0ADFCF8FEFFE
:101460009FEF0F900F90DF91CF911F910F91FF9001
:10147000EF90DF90CF90BF90AF909F908F907F9034
:101480006F905F904F903F902F900895FC01818D59
:10149000928D009711F00C943B098FEF9FEF089508
:1014A0000F931F93CF93DF93FC01818D928D009753
:1014B000B9F0EF010E943B098C010F3F8FEF180735
:1014C00091F0898D9A8DFC014285538564857585DF
:1014D00041505109610971090E944A03C80105C0C0
:1014E00080E090E002C08FEF9FEFDF91CF911F91DE
:1014F0000F9108952F923F924F925F926F927F9239
:101500008F929F92AF92BF92CF92DF92EF92FF9213
:101510000F931F93CF93DF93CDB7DEB7C85BD1098D
:101520000FB6F894DEBF0FBECDBFEB961FAE1EAE5A
:10153000EB9788EE93E0A0E0B0E0EF968CAF9DAF24
:10154000AEAFBFAFEF978AE192E0E9969FAF8EAF63
:10155000E997C057DF4F19821882C059D040CD5744
:10156000DF4F1882C358D04061E477E0CE01019686
:101570000E942002BE016F5F7F4FCE01865A9F4FAF
:101580000E94200221961FAE1EAE21978CEC92E0A5
:101590009EAF8DAF23961FAE2397A0968FADA097D9
:1015A00081111EC0CC56DF4F19821882C459D04019
:1015B00088EE93E0A0E0B0E0CA56DF4F88839983BD
:1015C000AA83BB83C659D040C555DF4F1982188204
:1015D000CB5AD040C256DF4F1882CE59D0402DC0D2
:1015E000825043E353E0823048F461E477E0CE0177
:1015F000CD960E94FC1E81110FC0D4CFBE01665A49
:101600007F4FCE01CD960E94FC1E882359F2CE0159
:10161000865A9F4F0E946A07BE01635C7F4FCE01CE
:1016200001960E94200243E353E0BE016F5F7F4FAB
:10163000CE018E569F4F0E94AC02CC56DF4F888160
:101640009981C459D040EB969FAF8EAFEB97CA56A5
:10165000DF4F88819981AA81BB81C659D040EF961E
:101660008CAF9DAFAEAFBFAFEF97C656DF4F88814F
:101670009981AA81BB81CA59D040C158DF4F888364
:101680009983AA83BB83CF57D0408DE0E2E9F0E095
:10169000EC0FFD1F3C96A7E7B0E0AC0FBD1F1C96FA
:1016A00001900D928A95E1F7C555DF4F88819981A8
:1016B000CB5AD040C057DF4F99838883C059D04060
:1016C0008E01035C1F4F7E012EE3E20EF11CCE0162
:1016D00089589F4F0E947102892B09F455C16C965D
:1016E0001FAE1EAE6C976E961FAE1EAE6E97A09686
:1016F0001FAE1EAEA09740E050E06CE374E0CE0158
:10170000865A9F4F0E943A18CE0189589F4F0E94D7
:10171000DE2397FD26C08332910519F18DAF1EAEF1
:10172000A096CEACDFACA0973FEFC31AD30AB601A8
:10173000CE01865A9F4F0E941318882329F36C9676
:101740002EAD3FAD6C97A0968EAD9FADA097B80122
:10175000820F931F0E948831A096DFAECEAEA09775
:10176000D3CFA096CEACDFACA097C114D10411F4B6
:10177000198217C04BE3C416D10418F08BE3C82EAE
:10178000D12C6C966EAD7FAD6C97A601CE01019603
:101790000E948F31E1E0F0E0EC0FFD1FEC0DFD1D2C
:1017A000108280911A0890911B089C012F5F3F4F77
:1017B00030931B0820931A08FE0131965F01412CDB
:1017C000512CC12CD12CF5E1F89F9001F99F300DDF
:1017D0001124C901865E974F3C011C0194E1290E3A
:1017E000311C93012D5E3F4FC355DF4F3983288352
:1017F000CD5AD04021503109C155DF4F398328835C
:10180000CF5AD04021503109CF54DF4F398328833C
:10181000C15BD04021503109CD54DF4F398328833B
:10182000C35BD04022503109CB54DF4F398328832A
:10183000C55BD04021503109C954DF4F398328831B
:10184000C75BD04043013CE0830E911CF5019191B0
:101850005F01992309F492C09C3259F4FFEFCF1A2B
:10186000DF0AF80126E011922A95E9F7412C512C64
:1018700081C039E0C316D10408F079C0F601882789
:10188000EE58FF4F8F4F0C943B2F4BE04416510402
:101890000CF06DC0F301E40DF51D928368C0F801F2
:1018A000E40DF51D9083F701E40DF51D1082C801CC
:1018B0000E949E31F4015AC0F801E40DF51D908399
:1018C000F701E40DF51D1082C8010E949E31C95434
:1018D000DF4FE881F981C75BD04048C0F801E40DD3
:1018E000F51D9083F701E40DF51D1082C8010E94DB
:1018F0009E31CB54DF4FE881F981C55BD0409183A5
:10190000808335C0CD54DF4FE881F981C35BD0407F
:101910000DC0CF54DF4FE881F981C15BD04006C0D4
:10192000C155DF4FE881F981CF5AD04090831FC065
:10193000F801E40DF51D9083F701E40DF51D10820B
:10194000C8010E949E31C355DF4FE881F981CD5A0D
:10195000D0400CC0F801E40DF51D9083F701E40DB3
:10196000F51D1082C8010E949E31F1018083FFEFB6
:101970004F1A5F0AAE14BF0409F068CFCE01865A31
:101980009F4F0E948618A3CEC057DF4F8881998150
:10199000C059D040009751F00E946A07C057DF4FEE
:1019A00088819981C059D0400E94EC2FC854DF4FE4
:1019B0000FB6F894DEBF0FBECDBFDF91CF911F9160
:1019C0000F91FF90EF90DF90CF90BF90AF909F90DE
:1019D0008F907F906F905F904F903F902F900895E1
:1019E0000895CF93DF931F92CDB7DEB76983DC01F3
:1019F000ED91FC910280F381E02D41E050E0BE01C9
:101A00006F5F7F4F19950F90DF91CF910895CF931E
:101A1000FC01C08D80E590E00E942E0560E270E040
:101A20008C2F0E94CE2062E070E08C2F0E949612D4
:101A300084FD19C062E070E08C2F0E94961283FF33
:101A40000BC048E162E070E08C2F0E948C120E9473
:101A5000E30480E090E011C00E94E30480E590E0A0
:101A60000E942E05E0CF40E162E070E08C2F0E94E2
:101A70008C120E94E30481E090E0CF910895FF92E0
:101A80000F931F93CF93DF93FB01DC0157961C92BA
:101A90001E9256975896FC908281811109C08381CD
:101AA000811106C08481811103C085818823F9F0EA
:101AB00041155105E1F08A01EF0180E590E00E94B7
:101AC0002E05BE016E5F7F4F2F2D30E0922F8827AD
:101AD00044E050E0845F9B4F0E94831DB8018F2D2E
:101AE0000E9429130E94E30481E090E002C080E09C
:101AF00090E0DF91CF911F910F91FF900895BF92D9
:101B0000CF92DF92EF92FF920F931F93CF93DF93C9
:101B100000D000D0CDB7DEB7FC01208D243009F015
:101B200053C06A017B018C01B12C63E070E08B2D06
:101B30000E949612811103C0F801B08E06C0883150
:101B4000D9F3B394F4E0BF12F0CFF801808D843064
:101B5000D9F196E0E8E2F2E0DE01119601900D92F3
:101B60009A95E1F7F70193819F779C8394819D83F8
:101B700095819E83B7016E5F7F4F90E0982F8827F5
:101B800044E050E0845F9B4F0E94831DB601F80142
:101B9000808D0E942913F801808D90E0982F88276E
:101BA00046E050E0BE016F5F7F4F8A5F9B4F0E940F
:101BB000831DF801128E118E20E8A60162E0808D4F
:101BC0000E94051E81E001C080E026960FB6F894C1
:101BD000DEBF0FBECDBFDF91CF911F910F91FF9060
:101BE000EF90DF90CF90BF900895CF93DF931F9237
:101BF000CDB7DEB7FC01218D328D232B49F0BE011C
:101C00006F5F7F4F808D0E94DC1E898190E002C053
:101C10008FEF9FEF0F90DF91CF910895AF92BF921A
:101C2000CF92DF92FF920F931F93CF93DF938C019C
:101C30005B01EA01FC01C688D788F08C80E590E062
:101C40000E942E058F2D0E94CF228C179D0720F415
:101C50008F2D0E94CF22EC019E01A501B6018F2D90
:101C60000E946A220E94E304F801868997898C0FFA
:101C70009D1F978B868BCE01DF91CF911F910F9186
:101C8000FF90DF90CF90BF90AF900895CF92DF92FA
:101C9000EF92FF920F931F93CF93DF93CDB7DEB7F1
:101CA000AF970FB6F894DEBF0FBECDBF7C016A01BF
:101CB0000AE213E01A8309831C861B8688EE93E0F0
:101CC000A0E0B0E08D879E87AF87B88B80E892E078
:101CD0009A878987188F0F8B198E1A8E1B8E1C8EF0
:101CE00084E089A31DA30CA31EA21FA218A619A6F7
:101CF00080910F0790911007A0911107B0911207E2
:101D00008CA79DA7AEA7BFA78B839C83AD83BE8303
:101D100018861F82AE014C5D5F4FCE0101960E9476
:101D2000611A81309105B1F4D701ED91FC910488DD
:101D3000F589E02D1BA70AA78EA19FA1A8A5B9A58B
:101D40008CA79DA7AEA7BFA7A601BE01665D7F4F6A
:101D5000C7011995AF960FB6F894DEBF0FBECDBF81
:101D6000DF91CF911F910F91FF90EF90DF90CF9077
:101D70000895FF920F931F93CF93DF93F82E80E582
:101D800090E00E942E05C0E0D0E08F2D0E94D51D6E
:101D90008C01892B21F08F2D0E94D51DEC01C017DD
:101DA000D10799F70E94E304CE01DF91CF911F91F3
:101DB0000F91FF900895AF92BF92CF92DF92EF9272
:101DC000FF921F93CF93DF93182F5B017A0180E579
:101DD00090E00E942E05C0E0D0E0812F0E94D51D2A
:101DE0006C01892B21F0812F0E94D51DEC01CC15AF
:101DF000DD0599F7209799F463E070E0812F0E9448
:101E000096128431F1F08823E1F0C1E0D0E08C310A
:101E100011F4C0E0D0E0D195C195D10912C0EC1603
:101E2000FD060CF4E7011C161D065CF420E0AE0173
:101E3000B501812F0E94EB2260E470E0812F0E94A7
:101E4000CE200E94E304CE01DF91CF911F91FF903D
:101E5000EF90DF90CF90BF90AF900895CF93DF9336
:101E6000FC01218D328D2115310519F48FEF9FEF83
:101E700011C0EC014217530708F0A901888D0E9498
:101E8000DB0E1816190694F7298D3A8D281B390B8D
:101E90003A8F298FDF91CF9108950F931F93CF939E
:101EA000DF931F92CDB7DEB7FC01218D328D232B3E
:101EB00061F08C0141E050E0BE016F5F7F4F808D8B
:101EC0000E94DB0E181619061CF08FEF9FEF08C05A
:101ED000F801818D928D0197928F818F898190E099
:101EE0000F90DF91CF911F910F9108950F931F9342
:101EF000CF93DF93CDB7DEB728970FB6F894DEBF48
:101F00000FBECDBF8C01F801818D928D892B49F0D8
:101F1000D801ED91FC910284F385E02DC80119955B
:101F2000F2CF808D0E94B90E181619065CF548E0B4
:101F300050E0BE016F5F7F4FD80158968C910E9490
:101F4000DB0E9C0118161906DCF489819A81AB819D
:101F5000BC81F801808B918BA28BB38B8D8190E03B
:101F6000982F88272E81820F911D958B848B2F812E
:101F700030E0322F22278885280F311D328F218FA4
:101F8000C90102C080E090E028960FB6F894DEBF49
:101F90000FBECDBFDF91CF911F910F910895CF93C9
:101FA000C82F80E590E00E942E0560E170E08C2F44
:101FB0000E94CE204FEF62E070E08C2F0E948C12C6
:101FC000CF910C94E3041F93CF93DF931F92CDB76F
:101FD000DEB7182F80E590E00E942E0563E070E0E8
:101FE000812F0E94961289830E94E30489810F90B9
:101FF000DF91CF911F910895FC01818D928D0895FD
:10200000FC018489958908952AE233E0FC0131833B
:102010002083FB014089518962897389FC014283D5
:102020005383648375830895DC01ED91FC91048CE6
:10203000F58DE02D199480E00895CF93DF931F92E2
:10204000CDB7DEB76983DC01ED91FC910280F381AD
:10205000E02D41E050E0BE016F5F7F4F19950F907A
:10206000DF91CF91089521E001C0220F6A95EAF730
:10207000DC011C962C931C971A965C934E9319972F
:10208000ED91FC910484F585E02D60E01994DC016C
:10209000ED91FC910684F785E02D41E0199581E0F2
:1020A00090E008950895089520914B0430914C04D8
:1020B0002817390771F49091490480914A049817C0
:1020C00041F0E0914904F0E0ED5AFB4F808190E04F
:1020D00008958FEF9FEF089508951F93CF93DF9397
:1020E000DC015C962D913C915D972115310539F409
:1020F00081E090E013969C938E9312973DC0519689
:10210000ED91FC91529750969C915097892F809514
:102110001FB75E964C915E9741FB772770F941FDA2
:102120006095F8944081772311F0492B01C0482332
:102130004083E9012197F1F748E0508160FF02C038
:10214000592B01C058235083E9012197F1F7669577
:10215000415099F7772321F090818923808303C030
:102160008081982B90831FBF5C968D919C915D9789
:102170000197F1F721E030E0C901DF91CF911F9184
:10218000089520914B0430914C042817390771F4BD
:1021900080914A042091490490E0805C9F4F821B0B
:1021A000910960E470E00E94272F089580E090E09C
:1021B000089520914B0430914C0428173907B9F445
:1021C0009091490480914A04981789F0E09149045C
:1021D000F0E0ED5AFB4F80812091490430E02F5F01
:1021E0003F4F2F7333272093490490E008958FEFDA
:1021F0009FEF0895CF93DF93EC01888D843061F0D9
:102200000E94CF0FE88DF0E0EE0FFF1FED56FB4F61
:102210001182108284E0888FDF91CF910895EF9230
:10222000FF921F93CF93DF93FC01208D243011F098
:1022300080E01CC07B01EC0110E0812F0E94E30FC5
:10224000811102C0188F05C08831E1F31F5F14307F
:10225000A1F7888D843061F3FD86EC861A8E198E85
:1022600020E0A70162E00E94051E81E0DF91CF918E
:102270001F91FF90EF9008952F923F924F925F929F
:102280006F927F928F929F92AF92BF92CF92DF9286
:10229000FF920F931F93CF93DF93CDB7DEB7619774
:1022A0000FB6F894DEBF0FBECDBF8C015B014A01B3
:1022B00083E994E09F878E87998B888BF12CC12CC2
:1022C000D12C38EE432E33E0532E612C712C42E397
:1022D000242E42E0342E1C821B824D825E826F824D
:1022E00078863A822982FD86E889F989219131919F
:1022F000F98BE88BD80114968D919C91159728172E
:102300003907B9F4CE0101960E94DE19843171F0CB
:10231000CE0101960E94DE198C3159F4CE0101964E
:102320000E948B17892B09F459C003C0CC24C39495
:10233000D12CF394B4E0FB12CECFCD2841F4D801D8
:10234000ED91FC910084F185E02DC8011995F12CE7
:10235000612C712C88EE282E83E0382E412C512CD4
:1023600092E3C92E92E0D92E1C821B822D823E82DE
:102370004F825886DA82C982FD86EE85FF852191DB
:102380003191FF87EE87D80114968D919C91159716
:102390002817390731F4CE0101960E94DE198731E2
:1023A00011F1F394B4E0FB12DFCFC30161960FB6D5
:1023B000F894DEBF0FBECDBFDF91CF911F910F917B
:1023C000FF90DF90CF90BF90AF909F908F907F90C5
:1023D0006F905F904F903F902F900895CE0101969F
:1023E0000E940A1AA6CFA401B501CE0101960E944F
:1023F0009417680E791ED5CFFC0123812223B9F0F2
:102400009181909569236083828191E09093C404C7
:102410008093E6041092C5041092E7048BEF96E0D7
:102420000E94E8240E940D22282F30E002C020E004
:1024300030E081E090E0232B11F080E090E00895FF
:10244000EF92FF920F931F93CF938C01FC0175962F
:1024500084E0C0E060FF02C09081C92B6695815086
:1024600031968111F7CF413011F4F8014489F80118
:102470008585C82BC42B7801FEE0EF0EF11CF80116
:1024800062896C2BC7010E94FC11F801628960957A
:102490006C23C701CF911F910F91FF90EF900C9487
:1024A000FC110F931F93CF93DF93062F0F704230D1
:1024B00019F440E0602F10C0142F262FEC0130E0FB
:1024C000B90184E0759567958A95E1F7CE010E9480
:1024D0002012412F602FCE01DF91CF911F910F91DC
:1024E0000C942012FC0184858823A9F02185328573
:1024F0002115310519F4611106C007C021303105DD
:1025000021F4611102C0858701C015866585CF0160
:102510000E960C94FC1108959B0190E00496982F60
:102520008827642F820F931F0C94B21D0F931F9363
:10253000CF93DF931F92CDB7DEB790E00496982F2C
:1025400088278C01060F171F0E94511D8FE00E94E3
:10255000EF04812F0E94EF04802F0E94EF0480E09F
:102560000E94EF0489830E944F1D89810F90DF91A3
:10257000CF911F910F9108958F929F92AF92BF922A
:10258000CF92DF92EF92FF920F931F93CF93DF933F
:10259000CDB7DEB72D970FB6F894DEBF0FBECDBF17
:1025A0007C0100E010E038EE832E33E0932EA12C66
:1025B000B12C42E3C42E42E0D42E1C821B828D82B9
:1025C0009E82AF82B886DA82C9820D87CE010196DB
:1025D0000E94DE19811125C0F7014481558120E058
:1025E00061E0802F0E94051E80E590E00E942E058C
:1025F00063E070E0802F0E949612833129F462E03C
:1026000070E0802F0E94CE200E94E304F7018481B5
:102610009581000F111FF801ED56FB4F91838083C8
:1026200005C00F5F1F4F0430110539F62D960FB608
:10263000F894DEBF0FBECDBFDF91CF911F910F91F8
:10264000FF90EF90DF90CF90BF90AF909F908F90D2
:102650000895CF93DF93C82FD62F472F60E170E006
:102660000E948C124D2F61E170E08C2FDF91CF9191
:102670000C948C12DC01ED91FC910684F785E02D21
:1026800040E019940F931F93CF93DF93EC014230F6
:1026900018F08C8188608C834F836887222329F00F
:1026A000413019F48C8184608C8364E670E080E0B2
:1026B00090E00E945D276C8164FD31C0E881F98162
:1026C0000684F785E02D42E063E0CE0119958BE4A6
:1026D00096E40197F1F7E881F9810684F785E02D0A
:1026E00042E063E0CE01199503E512E0C8010197CD
:1026F000F1F7E881F9810684F785E02D42E063E097
:10270000CE011995C8010197F1F7E881F981068496
:10271000F785E02D42E062E0CE01199517C06062B6
:10272000CE010E943A138BE496E40197F1F76C8195
:102730006062CE010E943A1303E512E0C8010197DE
:10274000F1F76C816062CE010E943A13C8010197D3
:10275000F1F76C816062CE010E943A138BEE90E03B
:102760000197F1F784E08D836CE0CE010E943A136B
:1027700061E0CE010E943A138BE39FE10197F1F7EC
:1027800082E08E8366E0CE010E943A13E881F981EF
:102790000484F585E02D6FEFCE01DF91CF911F917D
:1027A0000F911994EF92FF920F931F93CF93DF93A2
:1027B000EC01062FF42EE22E8B85888B1092BF1031
:1027C0001092BE101092C5041092E7041092C30438
:1027D00011E01093C20410929D0461E084E10E9414
:1027E0006E2661E085E10E946E268091B9008E7FA1
:1027F0008093B9008091B9008D7F8093B90088E4FF
:102800008093B80085E48093BC0088891093C40449
:102810008093E6041092C5041092E7040E940D22F2
:1028200091E0811190E0998B992329F08BEF96E04C
:102830000E94A1248E878989882339F01F861C82F3
:1028400060E0CE010E960E94FC112E2D4F2D602FC0
:10285000CE01DF91CF911F910F91FF90EF900C94DB
:1028600042131F920F920FB60F9211240BB60F92C4
:102870002F933F934F935F936F937F938F939F9388
:10288000AF93BF93EF93FF93E0914B04F0914C040F
:10289000309709F451C0968DA685B785858591FF3F
:1028A00004C09C91892329F447C09C91892309F095
:1028B00043C0A389B4899C918589809589238C9391
:1028C000868997890197F1F7608D718DA685B78507
:1028D000558538E020E0CB010197F1F7822F90E099
:1028E00095958795282F4C91452309F02068315004
:1028F00091F7868D81FD209580914A0490E00196A4
:102900008F73992730914904381749F0A0914A04F0
:10291000B0E0AD5ABB4F2C9380934A0403C0868D20
:102920008160868F828D938D0197F1F7A389B48999
:102930009C918589892B8C93FF91EF91BF91AF91E9
:102940009F918F917F916F915F914F913F912F91C7
:102950000F900BBE0F900FBE0F901F901895E09137
:102960004B04F0914C04E817F90769F4A389B48982
:102970009C918589809589238C9310924C041092A8
:102980004B0481E0089580E008954F925F926F922A
:102990007F928F929F92AF92BF92CF92DF92EF92EF
:1029A000FF920F931F93CF93DF93EC016A017B019A
:1029B00028013901423051056105710510F480E0AC
:1029C00073C089859A85AB85BC850196A11DB11D13
:1029D00084179507A607B70790F38B889C88AD8866
:1029E000BE888F89803129F4BB27AF2D9E2D8D2D78
:1029F00009C0DB01CA0147E0B695A7959795879571
:102A00004A95D1F7880E991EAA1EBB1E8091080216
:102A100090910902A0910A02B0910B0288169906C2
:102A2000AA06BB0679F48F898031A1F4DD24EE2457
:102A3000FF24C601880F991FFC01E550FB4F51820E
:102A4000408219C040E0C501B4010E94E306811133
:102A5000EACFB5CFE894C7F8DD24EE24FF24C60101
:102A6000880F991F880F991FFC01E550FB4F40828A
:102A70005182628273828091FA0481608093FA04A9
:102A80008A89823080F08D819E81AF81B885880EE1
:102A9000991EAA1EBB1E80924F0490925004A092D1
:102AA0005104B092520481E0DF91CF911F910F91B8
:102AB000FF90EF90DF90CF90BF90AF909F908F905E
:102AC0007F906F905F904F9008958F929F92AF92FA
:102AD000BF92CF92DF92EF92FF920F931F93CF930B
:102AE000DF93FC0181859285A385B4850196A11DA4
:102AF000B11D84179507A607B70710F480E05CC0E6
:102B000083899489A589B689C789C03129F4852E1E
:102B1000962EA72EBB2409C04A015B01C7E0B694DC
:102B2000A79497948794CA95D1F7E9016A017B012C
:102B30008F01BC01CD01680D791D8A1D9B1D809000
:102B4000080290900902A0900A02B0900B0268154A
:102B500079058A059B0599F4F80187898031A9F4E4
:102B6000B701A601552766277727440F551FFA019D
:102B7000E550FB4F80819181A0E0B0E018C040E0BB
:102B80000E94E3068111E8CFB9CFB701A6014F77C4
:102B9000552766277727440F551F440F551FFA0105
:102BA000E550FB4F80819181A281B381BF70888302
:102BB0009983AA83BB8381E0DF91CF911F910F910D
:102BC000FF90EF90DF90CF90BF90AF909F908F904D
:102BD0000895CF92DF92EF92FF920F931F93CF93BE
:102BE000DF936C017A018B01C0E0D0E0CE15DF05E8
:102BF00089F0D8016D918D01D601ED91FC91019084
:102C0000F081E02DC6011995892B11F47E0102C0D7
:102C10002196ECCFC701DF91CF911F910F91FF90CB
:102C2000EF90DF90CF900895FC01538D448D252FB8
:102C300030E0842F90E0821B930B541710F0CF9656
:102C4000089501970895FC01918D828D981761F088
:102C5000828DDF01A80FB11D5D968C91928D9F5FD3
:102C60009F73928F90E008958FEF9FEF0895FC017E
:102C7000918D828D981731F0828DE80FF11D858D31
:102C800090E008958FEF9FEF0895FC01918D228DC4
:102C9000892F90E0805C9F4F821B91098F73992749
:102CA000089580E697E00E94451621E0892B09F4FB
:102CB00020E0822F0895FC01848DDF01A80FB11D53
:102CC000A35ABF4F2C91848D90E001968F73992762
:102CD000848FA689B7892C93A089B1898C9180644F
:102CE0008C93938D848D981306C00288F389E02D10
:102CF00080818F7D80830895EF92FF920F931F93C1
:102D0000CF93DF93EC0181E0888F9B8D8C8D98139E
:102D100005C0E889F989808185FD24C0F62E0B8DD8
:102D200010E00F5F1F4F0F731127E02E8C8DE812FC
:102D30000CC00FB607FCFACFE889F989808185FFBE
:102D4000F5CFCE010E945B16F1CF8B8DFE01E80F0F
:102D5000F11DE35AFF4FF0820B8FEA89FB898081D6
:102D6000806207C0EE89FF896083E889F9898081E4
:102D70008064808381E090E0DF91CF911F910F917B
:102D8000FF90EF900895CF93DF93EC01888D882317
:102D9000C9F0EA89FB89808185FD05C0A889B989C8
:102DA0008C9186FD0FC00FB607FCF5CF808185FFA3
:102DB000F2CFA889B9898C9185FFEDCFCE010E9411
:102DC0005B16E7CFDF91CF91089580E090E0892BEB
:102DD00021F00E945116811125C080E090E0892BDE
:102DE00041F080E090E0892B21F00E9400008111E9
:102DF0001CC080E090E0892B41F080E090E0892BBE
:102E000021F00E940000811113C080E090E0892B26
:102E1000A1F080E090E0892B81F00E9400008111F8
:102E20000AC008950E940000D8CF0E940000E1CFA0
:102E30000E940000EACF0C9400000895FC019485E4
:102E4000FB018485981303C081E0943009F480E08D
:102E5000089521E0FC018485843009F420E0822F6C
:102E600008950895CF93DF931F92CDB7DEB769839E
:102E7000DC01ED91FC910280F381E02D41E050E016
:102E8000BE016F5F7F4F19950F90DF91CF9108952D
:102E90000E946D310F931F93CF93DF931F92CDB795
:102EA000DEB78C01DC01ED91FC910084F185E02D11
:102EB0001995892B51F0BE016F5F7F4FF801848512
:102EC0000E94DC1E898190E002C08FEF9FEF0F907F
:102ED000DF91CF911F910F910895FC0184850C948F
:102EE000DB0ECF93DF931F92CDB7DEB741E050E00A
:102EF000BE016F5F7F4FFC0184850E94DB0E1816B8
:102F000019061CF4898190E002C08FEF9FEF0F90AB
:102F1000DF91CF910895FC018485843011F00C94E9
:102F2000B90E80E090E008958F929F92AF92BF9289
:102F3000CF92DF92EF92FF920F931F93CF93DF9385
:102F40006C015B017A01FC01C485C43041F481E06D
:102F500090E0F6019383828380E090E057C08A017D
:102F60004130584010F000E018E080E590E00E9409
:102F70002E058C2F0E94CF224C0163E070E08C2F35
:102F80000E949612D82F0E94E304D73111F0DC3151
:102F900021F48016910648F302C000E010E080E5BD
:102FA00090E00E942E059801A50160E070E08C2F52
:102FB0000E946A2260E270E08C2F0E94CE2062E0C4
:102FC00070E08C2F0E94961284FD14C063E070E0C4
:102FD0008C2F0E949612811106C00E94E3048C2F50
:102FE0000E94CF0FB4CF0E94E30480E590E00E94DE
:102FF0002E05E5CF40E162E070E08C2F0E948C123C
:103000000E94E304012B09F4A2CFC701DF91CF9105
:103010001F910F91FF90EF90DF90CF90BF90AF90F6
:103020009F908F9008950F931F93CF93DF93EC01A0
:1030300088819981009729F02A813B8126173707DB
:1030400088F48B016F5F7F4F0E948430009761F09E
:10305000998388831B830A832C813D81232B11F460
:10306000FC01108281E001C080E0DF91CF911F91CF
:103070000F910895EF92FF920F931F93CF93DF93D9
:10308000EC017B018A01BA010E9413182881398161
:1030900081110DC02115310519F0C9010E94EC2FD5
:1030A000198218821D821C821B821A8206C01D830F
:1030B0000C83B701C9010E948831CE01DF91CF9105
:1030C0001F910F91FF90EF900895CF93DF93EC0144
:1030D0006115710559F0FB0101900020E9F7319766
:1030E000AF01461B570B0E943A180CC0888199818A
:1030F000009711F00E94EC2F198218821D821C8209
:103100001B821A82CE01DF91CF910895FC0180814C
:1031100091810C94EC2F0F931F93CF93DF93CDB736
:10312000DEB729970FB6F894DEBF0FBECDBF8C0176
:10313000862FF80111821082138212821582148266
:1031400050E0BE016F5F7F4F90E00E94CF31BE0123
:103150006F5F7F4FC8010E94651829960FB6F894DB
:10316000DEBF0FBECDBFDF91CF911F910F910895AC
:10317000CF93DF931F921F92CDB7DEB7FC01118270
:103180001082138212821582148269831A82BE0110
:103190006F5F7F4F0E9465180F900F90DF91CF9166
:1031A0000895DC01ED91FC910190F081E02D1994DE
:1031B0006115710579F0FB0101900020E9F7319765
:1031C000AF01461B570BDC01ED91FC910280F381AE
:1031D000E02D199480E090E008954F925F926F92F5
:1031E0007F92EF92FF920F931F93CF93DF93CDB710
:1031F000DEB7A1970FB6F894DEBF0FBECDBF7C013E
:10320000FA01CB0119A2223008F42AE08E010F5DE9
:103210001F4F422E512C612C712CBF01A301920132
:103220000E940F32F901CA01015011096A3014F4E9
:10323000605D01C0695CD8016C93232B242B252B86
:1032400061F7B801C7010E94D818A1960FB6F8948B
:10325000DEBF0FBECDBFDF91CF911F910F91FF90C9
:10326000EF907F906F905F904F9008958F929F9214
:10327000AF92BF92CF92DF92EF92FF920F931F9384
:10328000CF93DF937C018B016C0182E0C80ED11CCF
:103290004701E5E08E0E911CC0E0D0E0F6014191BF
:1032A0006F0150E060E070E02AE0C8010E94ED1874
:1032B0005C016EE2C8010E94D1188A0D9B1DC80FE7
:1032C000D91FC814D90451F7F701458150E060E0D7
:1032D00070E02AE0C8010E94ED188C0F9D1FDF915D
:1032E000CF911F910F91FF90EF90DF90CF90BF9003
:1032F000AF909F908F9008950C94D8181F920F92C2
:103300000FB60F9211240BB60F922F933F934F934A
:103310005F936F937F938F939F93AF93BF93EF933D
:10332000FF9380E697E00E945B16FF91EF91BF91BB
:10333000AF919F918F917F916F915F914F913F914D
:103340002F910F900BBE0F900FBE0F901F901895EE
:103350001F920F920FB60F9211240BB60F922F935C
:103360008F939F93EF93FF93E0917007F091710714
:103370008081E0917607F091770782FD12C09081FD
:10338000809179078F5F8F7320917A07821751F0B0
:10339000E0917907F0E0E05AF84F958F8093790734
:1033A00001C08081FF91EF919F918F912F910F909C
:1033B0000BBE0F900FBE0F901F901895FC018485D7
:1033C000843011F00C94E30F80E00895CF93DF93E5
:1033D000FC0124852430D1F0EC010E94DE198431F7
:1033E00081F0882371F0883161F08C3161F4E881DB
:1033F000F9810084F185E02DCE01199521E0892B1A
:1034000019F420E001C021E0822F01C080E0DF91AB
:10341000CF910895CF92DF92EF92FF921F93CF93B7
:10342000DF93FC0114851430A9F1EC0180E590E0F4
:103430000E942E0568E070E0812F0E94CE200E943D
:10344000E3040E9497276B017C01CE010E94DE19E4
:103450008823B1F061E070E080E090E00E945D2799
:103460000E949727DC01CB018C199D09AE09BF0989
:10347000883E9340A105B10540F38C850E94CF0F93
:10348000EC85F0E0EE0FFF1FED56FB4F118210822E
:1034900084E08C87DF91CF911F91FF90EF90DF90B8
:1034A000CF900895DC01ED91FC91068CF78DE02D15
:1034B000199591E089270895862F089581E0862740
:1034C00008952F923F924F925F926F927F928F92C8
:1034D0009F92AF92BF92CF92DF92EF92FF920F93A3
:1034E0001F93CF93DF93CDB7DEB765970FB6F894F0
:1034F000DEBF0FBECDBF7C016B013A01FB0120E0B6
:1035000080E090E06AE03191332309F140ED430F10
:103510004A3080F4689FA001699F500D1124CA01B0
:10352000C097830F911D37FD9A958F3F910559F3F1
:1035300050F313C03E3289F4233079F0D301A20F47
:10354000B11D12968C932F5F80E090E0DCCF23308A
:1035500021F4F301858381E021C0F7014281538189
:10356000648175818091090790910A07A0910B07EA
:10357000B0910C07481759076A077B0709F49EC1E9
:103580000E9497278701085F1F4F6F7077277C5F26
:10359000C8010E940F11813019F080E090E0F3C162
:1035A0008AE293E09A838983F70182819381A481DF
:1035B000B5818B839C83AD83BE8345E350E0BE0120
:1035C0006F5F7F4FC8010E943F0D892B19F4C12CFA
:1035D000D12C6FC10E949727F701778366837627E6
:1035E000672776277A83698342E050E0BE016F5FE8
:1035F0007F4FC8010E940E0E81E090E09E878D876C
:1036000042E050E0BE01635F7F4FC8010E940E0E92
:1036100080E091E09E878D8742E050E0BE01635FCD
:103620007F4FC8010E940E0E1E861D8642E050E0AC
:10363000BE01635F7F4FC8010E940E0E42E050E062
:10364000BE01635F7F4FC8010E940E0E42E050E052
:10365000BE01635F7F4FC8010E940E0E5601F50147
:103660008081882311F1F6015F018191811115C0DC
:1036700045018C189D081814190494F48F8641E0B4
:1036800050E0BE01615F7F4FC8010E940E0EA40191
:10369000B601C8010E940E0E03C08E3229F7E8CF92
:1036A0006501FFEFCF1ADF0ADACF1F8641E050E055
:1036B000BE01615F7F4FC8010E940E0EC12CDD2448
:1036C000D394DE86CD8642E050E0BE01635F7F4F3B
:1036D000C8010E940E0EDE86CD8642E050E0BE019B
:1036E000635F7F4FC8010E940E0EC8010E94070D44
:1036F000892B09F46CCF63E0A62EB12CF2E06F0E9B
:10370000711C0E9497271B012C01C8010E94760F93
:1037100018161906A4F00E949727DC01CB01821924
:103720009309A409B50989389341A105B105D0F4DD
:1037300062E370E080E090E00E945D27E6CFF70151
:103740004281538164817581808D918DA28DB38D6D
:10375000481759076A077B0741F4848D958DC597F3
:1037600021F406C02FEF3FEF9AC02EEF3FEF97C036
:10377000F70181A192A10C970CF4A6C04CE050E097
:10378000BE016F5F7F4FC8010E942E0F8B8190E0BA
:10379000982F88272C81822B9A8B898B298130E066
:1037A000322F22274A81242BF70146815781421765
:1037B000530709F086C097FF84C08F709270892BE1
:1037C00009F0DEC0CF80D12CDC2CCC248885C82A1F
:1037D000C114D10409F4D1C0812C912C8D8190E0C9
:1037E000982F88272E81822B8816990608F46FC09F
:1037F000812C912C41E050E0BE016D5E7F4FC801ED
:103800000E942E0F8B89982F907C09F093C0811114
:1038100086C08B898111EECF42E050E0BE01615F2E
:103820007F4FC8010E942E0F42E050E0BE01635F4F
:103830007F4FC8010E942E0FC8010E944D0FC80182
:103840000E944D0FC8010E944D0FC8010E944D0FEC
:1038500042E050E0BE016F5E7F4FC8010E942E0F14
:103860008F8598898115914009F069C02D853E8525
:103870003227232732272130310509F060C089899A
:103880009A898115944009F075C044E050E0B30175
:10389000C8012C8B3D8B0E942E0F2C893D8969011C
:1038A000F1E0AF1AB10829F02FEFC216D20609F4E1
:1038B00028CFC8010E94FA10C60165C08EEF9FEFA5
:1038C00062C02CEF3FEFEBCF2DEF3FEFE8CF41E0B1
:1038D00050E0BE01635F7F4FC8010E942E0F8D85AF
:1038E000811113C08D858111F2CFC8010E944D0F47
:1038F000C8010E944D0FC8010E944D0FC8010E94CF
:103900004D0FFFEF8F1A9F0A69CF8D859FEF980F9C
:103910009D87882339F3C8010E944D0FF6CF8B890C
:103920009FEF980F9B8B882309F473CFC8010E94E7
:103930004D0FF5CFC8010E944D0F1B8A6ACF412C55
:10394000512C89899A8998278927982748165906DA
:1039500038F4C8010E944D0F8FEF481A580AF1CF72
:10396000EFEF8E1A9E0A8C149D0409F043CF26EFC8
:103970003FEF95CF27EF3FEF92CF2AEF3FEF8FCF6B
:103980002BEF3FEF8CCF65960FB6F894DEBF0FBEDE
:10399000CDBFDF91CF911F910F91FF90EF90DF90FE
:1039A000CF90BF90AF909F908F907F906F905F90DF
:1039B0004F903F902F900895CF92DF92EF92FF9219
:1039C0000F931F93CF93DF93CDB7DEB7AF970FB6AB
:1039D000F894DEBF0FBECDBF7C016A010AE213E09E
:1039E0001A8309831C861B8688EE93E0A0E0B0E072
:1039F0008D879E87AF87B88B80E892E09A8789870A
:103A0000188F0F8B198E1A8E1B8E1C8E84E089A343
:103A10001DA30CA31EA21FA218A619A680910F0712
:103A200090911007A0911107B09112078CA79DA744
:103A3000AEA7BFA78B839C83AD83BE8318861F82EE
:103A4000AE014C5D5F4FCE0101960E94611A81303C
:103A50009105B1F4D701ED91FC910684F785E02D35
:103A60001BA70AA78EA19FA1A8A5B9A58CA79DA752
:103A7000AEA7BFA7A601BE01665D7F4FC70119951E
:103A8000AF960FB6F894DEBF0FBECDBFDF91CF91DA
:103A90001F910F91FF90EF90DF90CF9008952C9A97
:103AA00008952C980895CF92DF92EF92FF920F9392
:103AB0001F93CF93DF93EC017A018B016C01C40E4D
:103AC000D51ECC15DD05A9F00E94511D8FE00E9486
:103AD000EF048D2F0E94EF048C2F0E94EF0421969B
:103AE00080E00E94EF04F80181938F010E944F1D36
:103AF000E8CFC701DF91CF911F910F91FF90EF9019
:103B0000DF90CF900895CF92DF92EF92FF920F93C4
:103B10001F93CF93DF93EC017A018B016C01C40EEC
:103B2000D51ECC15DD05A1F00E94511D80EF0E942D
:103B3000EF048D2F0E94EF048C2F0E94EF0421963A
:103B4000F80181918F010E94EF040E944F1DE9CF7F
:103B5000C701DF91CF911F910F91FF90EF90DF9000
:103B6000CF9008951F93CF93DF931F921F92CDB7ED
:103B7000DEB7182F6A8399830E94511D80EF0E943F
:103B8000EF049981892F0E94EF04812F0E94EF0496
:103B90006A81862F0E94EF040E944F1D81E00F90E2
:103BA0000F90DF91CF911F9108951F93CF93DF93D3
:103BB000182F66E270E00E949612C82FD0E067E2EC
:103BC00070E0812F0E949612DC2FCC279E01282BBB
:103BD000C901DF91CF911F9108951F93CF93DF9378
:103BE000182F60E270E00E949612C82FD0E061E2C8
:103BF00070E0812F0E949612DC2FCC279E01282B8B
:103C0000C901DF91CF911F910895FF920F931F93E8
:103C1000CF93DF931F921F92CDB7DEB7F82E8A01A4
:103C20002A8369830E94CF0F80E590E00E942E05D1
:103C30002A816981462F422B60E070E08F2D0E941F
:103C40008C120115110551F400919B0410919C04F4
:103C50000F5F1F4F10939C0400939B04412F64E05F
:103C600070E08F2D0E948C12402F65E070E08F2D48
:103C70000E948C1261E070E08F2D0E94CE200E9485
:103C8000E30481E00F900F90DF91CF911F910F918E
:103C9000FF900895CF92DF92FF920F931F93CF93DF
:103CA000DF93FC012485243009F079C06A01EB011F
:103CB0008C01F12C8F2D0E94E30F811103C0F801BC
:103CC000F48607C08B7F8831D1F3F394F4E0FF12C0
:103CD000F1CFF8018485843009F461C0209100029D
:103CE000309101022F5F3F4F11F420E030EC309310
:103CF000010220930002409100025091010220E055
:103D000061E00E94051EF801F4848A818F3F51F41E
:103D10008B818F3F91F48C818F3F79F48D818F3F20
:103D200061F43AC0811109C08B81811106C08C8178
:103D3000811103C08D81882379F1C114D10461F10F
:103D400080E590E00E942E05BE016E5F7F4F8F2DB3
:103D500090E0982F882744E050E0845F9B4F0E94BA
:103D6000831DB6018F2D0E94291364E070E08F2D12
:103D70000E94CE200E94E304C8010E94DE19873110
:103D800089F061E070E080E090E00E945D27C8016A
:103D90000E94DE198111F0CF84E0F801848780E071
:103DA00090E002C081E090E0DF91CF911F910F91F0
:103DB000FF90DF90CF9008951F93CF93DF931F92D2
:103DC0001F92CDB7DEB7182F80E590E069837A8324
:103DD0000E942E0521E041E050E069817A81812F27
:103DE0000E94EB220E94E30481E090E00F900F908C
:103DF000DF91CF911F910895AF92BF92CF92DF9242
:103E0000EF92FF920F931F93CF93DF93CDB7DEB75F
:103E10002B970FB6F894DEBF0FBECDBF7C01FC011F
:103E200085818111C2C0CE0101966C01FC0190E236
:103E30008BE08C0D91938E13FDCFDA0120E037E0FB
:103E40009D91992339F19E3219F0E6EAF2E00AC019
:103E50003A3009F4AAC028E03AE0F2CF3196891747
:103E600009F4A3C084918111F9CF321708F49DC0E1
:103E70008FED890F8E3508F098C081E0820FF60132
:103E8000E20FF11D2FE9290F2A3108F49052908397
:103E9000282FD6CF8981803209F487C08B01FB019E
:103EA000838D948DF701948F838FFB011682178287
:103EB000108611861286138614861586A12CF801A9
:103EC00082859385A485B5854389548965897689DA
:103ED00084179507A607B70708F067C025E0B695D1
:103EE000A795979587952A95D1F7F82FFF70BF2E44
:103EF000F8018581823008F458C0C8010E943B094E
:103F000097FD53C0F80182859385A485B5854F96AA
:103F1000A11DB11D82879387A487B587F0E2BF9E5C
:103F2000C0011124BC0165507B4F61157105E9F199
:103F3000FB0120812223B9F1253EE1F04BE050E066
:103F4000C6010E947231892B09F0B9CF6B2DC701D0
:103F50002B960FB6F894DEBF0FBECDBFDF91CF9189
:103F60001F910F91FF90EF90DF90CF90BF90AF9097
:103F70000C940A24A11014C0F701B28A40910802DF
:103F80005091090260910A0270910B02468757878F
:103F9000608B718BFC01E550FB4F8081882329F0F9
:103FA000AA24A3948CCFAA2039F380E02B960FB6D5
:103FB000F894DEBF0FBECDBFDF91CF911F910F915F
:103FC000FF90EF90DF90CF90BF90AF9008951F9338
:103FD000CF93DF93CDB7DEB7C254D1090FB6F894B3
:103FE000DEBF0FBECDBFFC0182819381A481B5816C
:103FF00023968CAF9DAFAEAFBFAF239711E0239652
:104000001FAF239723964CAD5DAD6EAD7FAD23976B
:104010004BAB5CAB6DAB7EAB89AF9AAFABAFBCAF1C
:104020008DA79EA7AFA7B8AB18AB4DA55EA56FA592
:1040300078A94FA358A769A77AA71EAB4BA95CA97B
:104040006DA97EA949A35AA36BA37CA38B8F9C8FD8
:10405000AD8FBE8F2AE233E03C8B2B8B4FEF4D8B25
:104060004E8B4F8B188E3E872D871AA74FA158A5D0
:1040700069A57AA54F87588B698B7A8B1CA349A1B8
:104080005AA16BA17CA149875A876B877C873A83A9
:1040900029838B839C83AD83BE836CE271E080E0D7
:1040A00090E00E945D270E942727249A80E590E0F7
:1040B0000E942E0560E880E090E00E94B21D65E558
:1040C0008BE190E00E94B21D65E58AE190E00E94DC
:1040D000B21D0E94E304EAEEF4E080E090E49183F4
:1040E000808380E090E69187808780E098E49383E6
:1040F000828380E098E69387828780E090E59583CD
:10410000848380E090E79587848780E098E59783B3
:10411000868380E098E79787868780E590E00E9415
:104120002E0546E050E062E072E089E090E00E94F7
:10413000831D44E050E0BE016D5F7F4F8FE090E053
:104140000E94831D44E050E0BE01615F7F4F81E02B
:1041500090E00E94831D44E050E0BE016B5E7F4F03
:1041600085E090E00E94831D0E94E3041C878985FE
:104170009A85AB85BC8580930F0790931007A09319
:104180001107B0931207CE5BDF4F0FB6F894DEBF76
:104190000FBECDBFDF91CF911F910895CF93C82F50
:1041A000462F61E070E00E948C1261E070E08C2F7D
:1041B0000E9496128111F9CFCF9108958F929F920C
:1041C000AF92BF92CF92DF92EF92FF92CF93DF93A5
:1041D000C82F87E197E09093E9048093E804CC230B
:1041E00069F1C53010F080E00DC140E060E070E0A2
:1041F000CB010E94E3068823B1F320E1C29FC001F6
:10420000112485519B4FFC01E254FE4F20812F77F2
:1042100051F73C964081518162817381443651054A
:104220006105710500F33497C080D180E280F3808E
:10423000C114D104E104F10421F4D5CFC12CD12C57
:10424000760140E0C701B6010E94E306882359F2D7
:1042500080910605909107058115924021F6A09165
:104260000B05AA2309F4BFCF6091090570910A05D7
:104270006115710509F4B7CF20910805222309F4CF
:10428000B2CFA09335072093270780E030E0E1E02C
:10429000F0E0C82FAF01082E02C0440F551F0A944A
:1042A000E2F72417350741F0982F8F5F983089F790
:1042B00089E08093300797CF8093300720911105D4
:1042C000309112052115310519F040E050E008C089
:1042D00020911F0530912005409121055091220524
:1042E000209328073093290740932A0750932B07E0
:1042F00046015701860E971EA11CB11C80923607FD
:1043000090923707A0923807B0923907E0910C05D8
:10431000F0910D05F0933C07E0933B07B0E00E945D
:104320000432860E971EA81EB91E80923D079092F9
:104330003E07A0923F07B092400785E0EE0FFF1FB7
:104340008A95E1F7E150FE4FEF2FFF27E6958E0E9D
:104350009F1EA11CB11C8092310790923207A0923F
:104360003307B092340720910E0530910F052115C7
:10437000310521F0A90160E070E008C040911B0503
:1043800050911C0560911D0570911E05D701C60155
:1043900088199909AA09BB09840F951FA61FB71F81
:1043A00004C0B695A79597958795CA95D2F780933F
:1043B0002C0790932D07A0932E07B0932F07853FCE
:1043C0002FE09207A105B10510F48CE018C0853FDD
:1043D0009F4FA105B10510F480E111C08091270520
:1043E00090912805A0912905B0912A0580933D0759
:1043F00090933E07A0933F07B093400780E28093DD
:104400003A0781E0DF91CF91FF90EF90DF90CF905E
:10441000BF90AF909F908F9008952091E704909166
:10442000E604213208F04AC08091C3048111FCCF18
:1044300032E03093C30431E03093C2043FEF309355
:10444000C1041092C0042093BF04A6ECB4E04FE96D
:1044500054E0FA013E2F341B321718F43D9131938A
:10446000F9CF10929E0420919E04990F922B909365
:104470009E0490919D04913061F410929D0490915E
:104480009E049093BB009091BC0093FDF8CF95ECF7
:1044900001C095EE9093BC009091C3049230E1F37B
:1044A0009091C1049F3F79F08091C104803241F026
:1044B0008091C104803331F084E005C081E003C005
:1044C00082E001C083E01092C5041092E7041092CC
:1044D000C40408959F92AF92BF92CF92DF92EF9261
:1044E000FF920F931F93CF93DF93982E8B015A0166
:1044F000690164E270E00E949612E82EF12C65E2F8
:1045000070E0892D0E949612FE2CEE24E82AE70125
:10451000C00FD11F9E013770E92CF12CC701880F05
:10452000991FAC0146515B4F7A01FA01808191815C
:10453000820F931FA9014C0D5D1D4130584090F032
:1045400000E018E0021B130BA801B5010E94831DB7
:10455000A601401B510BB501600F711FF70180814F
:10456000918102C0A601B5010E94831DCC0DDD1D05
:104570004D2F64E270E0892D0E948C124C2F65E271
:1045800070E0892DDF91CF911F910F91FF90EF90F7
:10459000DF90CF90BF90AF909F900C948C12FF92C1
:1045A0000F931F93CF93DF93F82EC0E0D0E08F2DB1
:1045B0000E94ED1D8C01892B21F08F2D0E94ED1D95
:1045C000EC01C017D10799F7CE01DF91CF911F9170
:1045D0000F91FF9008958F929F92AF92BF92CF92CA
:1045E000DF92EF92FF920F931F93CF93DF93B82E3A
:1045F0004B018A01A22E68E270E00E949612C82F39
:10460000D0E069E270E08B2D0E949612DC2FCC275F
:10461000C82B9E013770CB2CD12CC601880F991F57
:10462000AC014E505B4F6A01FA0180819181820F8B
:10463000931FA801420F531F4130584098F060E08B
:1046400078E07B01E21AF30AA701B4010E94531D2E
:10465000A8014E195F09B4016E0D7F1DF60180811E
:10466000918102C0A801B4010E94531DA1100EC087
:10467000C00FD11F4D2F68E270E08B2D0E948C126D
:104680004C2F69E270E08B2D0E948C12DF91CF914C
:104690001F910F91FF90EF90DF90CF90BF90AF9060
:1046A0009F908F900895CF93DF93CDB7DEB7289773
:1046B0000FB6F894DEBF0FBECDBF682F1D8280E419
:1046C0008E8394E19F8394E5988719828A8380E1A1
:1046D0008B8380E58C8390917610923018F42FEFC5
:1046E000290F01C021E08091771030E0FE01E20F38
:1046F000F31F803121F4943011F4918101C0958130
:10470000690F60688FE690E128960FB6F894DEBFD7
:104710000FBECDBFDF91CF910C943A13CF92DF92B1
:10472000EF92FF92CF93DF936C01990FEE08FF0891
:10473000F7FE1BC06DE28FE690E10E94D118EC01FC
:1047400044275527BA014C195D096E097F092AE0F3
:104750008FE690E10E94ED188C0F9D1FDF91CF91A5
:10476000FF90EF90DF90CF9008952AE0B701A60167
:104770008FE690E1DF91CF91FF90EF90DF90CF90A7
:104780000C94ED18FC01448155816081718180E6B3
:1047900097E00C94E915CF93DF93BC0180E697E096
:1047A0000E94D818EC016AE374E080E697E00E946A
:1047B000D8188C0F9D1FDF91CF9108950F931F93F1
:1047C000CF93DF93EC010E949727688779878A87C8
:1047D0009B87CE010E94460A97FF17C00E94972729
:1047E000088519852A853B85DC01CB01801B910B4F
:1047F000A20BB30B0C811D812E813F818017910785
:10480000A207B30730F38FEF9FEFDF91CF911F9196
:104810000F910895CF93DF93EC016A8B809108028A
:1048200090910902A0910A02B0910B028E879F8796
:10483000A88BB98B80E2689FF0011124E550FB4FF3
:104840004489558960E070E0BA01552744274F8BB1
:10485000588F698F7A8F828D938DA0E0B0E0482BBE
:10486000592B6A2B7B2B4F8B588F698F7A8F8385BF
:10487000887151F4848D958DA68DB78D8B8B9C8B13
:10488000AD8BBE8B81E00EC0803111F080E015C091
:104890009E012D5E3F4F8B8D9C8D0E94E1028823EF
:1048A000A9F384E08D8381E08C831E821F821886A9
:1048B00019861A861B861C861D86DF91CF91089566
:1048C00085ED8093BC008091BC0084FDFCCF1092EC
:1048D000C30408954091EC10262F30E0240F311DC1
:1048E00021323105DCF42091C3042430C9F4FC01E9
:1048F00080E090E0861758F43091EC102191DC01B3
:10490000A653BF4EA30FB11D2C930196F3CF8091F8
:10491000EC10680F6093EC1080E0089581E008953A
:1049200082E00895089581E090E03091BF102091D9
:10493000BE10321710F480E090E0919581959109B6
:1049400008958091BF109091BE10891730F48F5F49
:104950008093BF1080E090E008958FEF9FEF08955F
:104960008091BE1090E02091BF10821B91090895A4
:10497000CF92DF92EF92FF920F931F93CF93DF932B
:104980007C01262F972F8A018091C404882391F0FF
:10499000C62FD72F6E01C40ED51ECC15DD0571F0C4
:1049A0006991D701ED91FC910190F081E02DC70153
:1049B0001995F3CF642F822F0E946A24C801DF91DA
:1049C000CF911F910F91FF90EF90DF90CF900895BE
:1049D000CF93DF931F92CDB7DEB769832091C404D4
:1049E0002223D1F02091E704203240F021E030E092
:1049F000FC013383228380E090E015C08091C504E0
:104A0000E82FF0E0EA53FB4F998190838F5F80930A
:104A1000C5048093E70405C061E0CE0101960E94C1
:104A20006A2481E090E00F90DF91CF9108953FB725
:104A3000F8948091C5109091C610A091C710B091C4
:104A4000C81026B5A89B05C02F3F19F00196A11DDF
:104A5000B11D3FBFBA2FA92F982F8827820F911D14
:104A6000A11DB11DBC01CD0142E0660F771F881F5B
:104A7000991F4A95D1F708951F920F920FB60F9282
:104A800011240BB60F922F933F934F935F936F9325
:104A90007F938F939F93AF93BF93EF93FF938091F7
:104AA000B900887F803609F49CC068F5883209F423
:104AB0005BC090F4803109F454C038F4882309F4C1
:104AC000F6C0883009F44DC0F6C0883109F44CC0F6
:104AD000803209F45DC0EFC0803409F468C048F446
:104AE000803309F455C0883309F0E5C08093C104D0
:104AF000D8C0803509F44FC0883509F45DC08834CA
:104B000009F0D9C0D6C0883909F4C7C0A8F48837DD
:104B100009F467C038F4883609F463C0803709F4B3
:104B200060C0C9C0883809F4B8C0803909F45FC0D2
:104B3000803809F0C0C05BC0803B09F486C038F4FF
:104B4000803A09F466C0883A09F47FC0B4C0803C5A
:104B500009F4A7C0883C09F4A4C0883B09F48AC0C2
:104B6000AAC080919E0410C09091C0048091BF049F
:104B7000981770F5E091C00481E08E0F8093C00417
:104B8000F0E0E156FB4F80818093BB0085EC86C04E
:104B90008093C1048EC0E091C00481E08E0F8093A9
:104BA000C0048091BB00F0E0E156FB4F8083909100
:104BB000C0048091BF046EC0E091C00481E08E0FFC
:104BC0008093C0048091BB00F0E0E156FB4F8083EE
:104BD0008091C20481116DC081E080939D0484EABC
:104BE00061C083E08093C30410921011CFCF8091F5
:104BF0001011803208F051C0E091101181E08E0F49
:104C0000809310118091BB00F0E0E051FF4E808353
:104C1000BDCF85EC8093BC001092C304809110112D
:104C2000803230F4E0911011F0E0E051FF4E10823C
:104C30006091101170E0E091EE10F091EF1080EFB4
:104C400090E119951092101136C084E08093C3044E
:104C50001092ED101092EC10E091EA10F091EB1030
:104C600019958091EC10811105C081E08093EC10C2
:104C70001092CA10E091ED1081E08E0F8093ED103C
:104C8000F0E0E653FF4E80818093BB009091ED10E1
:104C90008091EC10981708F479CF85E88093BC00D8
:104CA0000AC085EC8093BC001092C30404C010922B
:104CB000C1040E946024FF91EF91BF91AF919F9139
:104CC0008F917F916F915F914F913F912F910F90B5
:104CD0000BBE0F900FBE0F901F901895362F90E0CF
:104CE000FC01EA58FC4F4491FC01E05DFC4F24912B
:104CF000FC01E651FD4F9491992309F46BC04423C4
:104D000009F455C050E0FA013197E231F10508F09D
:104D10004EC08827E558FF4F8F4F0C943B2F809152
:104D200080008F7707C0809180008F7D03C08091C5
:104D30008000877F809380003AC084B58F7702C05F
:104D400084B58F7D84BD33C08091B0008F7703C060
:104D50008091B0008F7D8093B00029C08091900039
:104D60008F7707C0809190008F7D03C08091900065
:104D7000877F809390001BC08091A0008F7707C031
:104D80008091A0008F7D03C08091A000877F8093D9
:104D9000A0000DC0809120018F7707C08091200175
:104DA0008F7D03C080912001877F80932001E92FB0
:104DB000F0E0EE0FFF1FEA54FD4FA591B4918FB7BD
:104DC000F894EC91311103C020952E2301C02E2BB5
:104DD0002C938FBF0895CF93DF9390E0FC01E05DAB
:104DE000FC4F2491FC01E651FD4F8491882361F131
:104DF00090E0880F991FFC01E454FC4FC591D491B9
:104E0000FC01EA54FD4FA591B491611109C09FB70F
:104E1000F8948881209582238883EC912E230BC0FF
:104E2000623061F49FB7F8943881822F8095832394
:104E30008883EC912E2B2C939FBF06C08FB7F894DC
:104E4000E8812E2B28838FBFDF91CF910895CF93D8
:104E5000CFB7F8948091C910811127C0EFE1F3E03A
:104E60008491E5E6F3E09491E82FF0E0EE0FFF1F68
:104E7000E454FC4FA591B491EC91E92321F461E055
:104E800085E30E946E2661E085E30E94EB268CB5E7
:104E900080618CBD8CB580648CBD61E084E30E9430
:104EA000EB2661E083E30E94EB268091C9108F5FBF
:104EB0008093C910CFBFCF9108958F929F92AF92E8
:104EC000BF92CF92DF92EF92FF926B017C010E9422
:104ED00017254B015C01C114D104E104F104F1F088
:104EE0000E941725DC01CB0188199909AA09BB0981
:104EF000883E9340A105B10570F321E0C21AD108A4
:104F0000E108F10888EE880E83E0981EA11CB11C10
:104F1000C114D104E104F10419F7DDCFFF90EF9043
:104F2000DF90CF90BF90AF909F908F9008952FB754
:104F3000F8946091C1107091C2108091C31090914B
:104F4000C4102FBF08951F920F920FB60F92112415
:104F50002F933F938F939F93AF93BF938091C110F3
:104F60009091C210A091C310B091C4103091C010A4
:104F700023E0230F2D3720F40196A11DB11D05C09C
:104F800026E8230F0296A11DB11D2093C010809327
:104F9000C1109093C210A093C310B093C41080911D
:104FA000C5109091C610A091C710B091C81001967D
:104FB000A11DB11D8093C5109093C610A093C7107A
:104FC000B093C810BF91AF919F918F913F912F9156
:104FD0000F900FBE0F901F90189588ED92E0909360
:104FE00051108093501080E590E10C94AF14CF9352
:104FF000DF93CDB7DEB7C456D1090FB6F894DEBF44
:105000000FBECDBF789484B5826084BD84B58160C5
:1050100084BD85B5826085BD85B5816085BD809183
:105020006E00816080936E001092810080918100FB
:1050300082608093810080918100816080938100F3
:10504000809180008160809380008091B1008460B5
:105050008093B1008091B00081608093B000809116
:105060009100826080939100809191008160809393
:105070009100809190008160809390008091A100C8
:1050800082608093A1008091A10081608093A10043
:105090008091A00081608093A000809121018260B6
:1050A0008093210180912101816080932101809171
:1050B000200181608093200180917A008460809338
:1050C0007A0080917A00826080937A0080917A00E1
:1050D000816080937A0080917A00806880937A0062
:1050E0001092C10061E08AE00E94EB2661E08AE054
:1050F0000E946E2620E044E064E18FE690E10E9489
:10510000D213E091FD07F091FE07A089B18982E0FA
:105110008C93A485B5851C92A685B7858FEC8C935E
:10512000108EA489B58986E08C93A289B3898C916D
:1051300080618C93A289B3898C9188608C93A289B9
:10514000B3898C9180688C930288F389E02D8081EB
:105150008F7D80836BE373E08091FD079091FE0764
:105160000E947C190091FF0710910008D8015B96FE
:105170001C921E925A9759961C921E9258975796B7
:105180001C921E9256978DEC90E05D969C938E93A8
:105190005C971C968C9196EF980F943048F02EEC0B
:1051A000280F243028F022EC280F283008F06BC09C
:1051B00025E530E0F801378B268B2BEC30E0318F82
:1051C000208F20E930E0338F228F943060F02EEC76
:1051D000280F243040F022EC280F283008F42EC489
:1051E000A0E0B0E02DC4A8E6B0E0E8E6F0E0208161
:1051F000943018F08E53883010F081E001C084E0C4
:10520000822B8C93D8011C968C9196EF980F94303A
:1052100058F02EEC280F243038F022EC280F2830DC
:1052200030F020E030E005C02BE630E002C02DE693
:1052300030E0F801348B238B943010F49AEF0BC0DC
:10524000823381F0833381F0843381F092EC980FC4
:10525000983070F492EC980F81E001C0880F9A9515
:10526000EAF707C088E005C084E003C082E001C01F
:1052700081E0D80155968C9355975C968D919C91C1
:105280005D970197F1F7F801828D938D892B21F1BC
:1052900080914B0490914C0480179107E9F000979E
:1052A00011F00E94AF14D8015E968C915E978E7FAC
:1052B0005E968C935E9710924A0410924904109364
:1052C0004C0400934B045396ED91FC9154979081BC
:1052D00055968C91892B80836BE373E08091FF0757
:1052E000909100080E947C1980E493E00E94CB23F7
:1052F000109222071092200710921D0710921C078F
:1053000084E080931B070E9497278B0161E08091C6
:105310001B070E94EB2661E080911B070E946E260E
:105320000E94272782E58093150710921607809127
:105330001507909116070E942E05AAE0FA2E8FEF0E
:105340000E94EF04FA94F110FACF0E94E30487E17F
:1053500097E00E94310520E030E0A90160E087E19C
:1053600097E00E944705F82E80932107E1E08E1711
:1053700049F00E949727601B710B613D774058F3FD
:1053800081E056C02AEA31E040E050E068E087E181
:1053900097E00E94470582FF03C0F092220710C0E9
:1053A000F4E0FF2E0E94F60480932107FA94F11096
:1053B000F9CF8A3A11F082E03BC082E08093220765
:1053C00080912207823021F0C12CD12C760105C0BA
:1053D000C12CD12CE12CE0E4FE2E20E030E0A9012C
:1053E00067E387E197E00E944705A701960169E21C
:1053F00087E197E00E94470580932107882349F0C1
:105400000E949727601B710B613D774030F388E065
:105410000FC080912207823001F520E030E0A90121
:105420006AE387E197E00E944705882341F086E020
:1054300080931C0787E197E00E94E404ADC00E94BE
:10544000F604807C803C19F483E0809322070E945C
:10545000F6040E94F6040E94F60487E197E00E9499
:10546000E40480E5809315071092160781E00E94FE
:10547000DE20882329F080914607882341F08CC0E4
:1054800080E00E94DE20882309F486C0F4CF80915A
:105490003A07803109F582E0809346071092580759
:1054A0001092590710925A0710925B0780913B07A0
:1054B00090913C07A0E0B0E075E0880F991FAA1F0B
:1054C000BB1F7A95D1F78093540790935507A0930B
:1054D0005607B09357071FC0803209F05DC083E0C4
:1054E0008093460740913D0750913E0760913F07EA
:1054F00070914007409358075093590760935A079B
:1055000070935B0724E537E083E297E00E94E102B5
:10551000882309F441C083E297E090935D0780936C
:105520005C0781E080934507109247071092480777
:105530001092490710924A0710924B0710924C079D
:1055400010924D0710924E0710924F07109250077D
:105550001092510710925207109253071EAE1DAEC3
:105560008CEC92E09CAF8BAF21961FAE219719A2D5
:1055700018A29F8F8E8F1BA2712C612C8E01055C4F
:105580001F4F61E4A62E67E0B62E902E812E6C018F
:10559000CE0101967C015FC088E593E00E94CB2399
:1055A00000E118E057E0E52EFF24F394F9C1FE0175
:1055B000E85AFF4F40E050E0D901AD5CBC4F8C9100
:1055C0008F3251F0882341F04F5F5F4F2F5F3F4F85
:1055D00081934C30510581F7E8E5F0E0EC0FFD1FB9
:1055E000E40FF51F1082F901ED5CFC4F80818F32D2
:1055F00011F42F5F3F4F722E632EF901ED5CFC4FCB
:1056000050801C821B82DA82C9821E82AE01485AF7
:105610005F4FB501C7010E94FC1E882341F1C701FD
:105620000E946A07552091F1AE01485A5F4FB501BB
:10563000C8010E94FC1E582EE1E4AE16E7E0BE064B
:10564000F9F4882361F1DE015E965D019A2D8B2DC0
:105650005801092F182F272D362DF901ED5CFC4F2D
:1056600080818F3209F0A3CF2F5F3F4FA0CFB1E4ED
:10567000AB16B7E0BB0699F0C5010E946A070FC0E0
:10568000C5010E946A075110E1CF09C0F1E4AF16CD
:10569000F7E0BF0639F0C5010E946A0703C08FE733
:1056A00093E07CCF80EA93E00E94CB238AE293E0F0
:1056B0009A8389838091901090919110A09192107B
:1056C000B09193108B839C83AD83BE83C7010E94EE
:1056D000E71F88E890E10E94BC120E947A0A1B86AC
:1056E0001C861E861D861F86188A198A1A8A1B8A9E
:1056F0001D8A1C8A8EEB93E00E94CB2386EC93E0FC
:105700000E94CB233CE1C32E38E0D32E00E010E012
:1057100045E1B42E80911A0890911B0808171907CB
:105720000CF03ECFF601D7018B2D01900D928A959A
:10573000E1F71F8E1E8E19A218A21BA21AA2D70172
:105740000D900020E9F71197AD014E195F09B701DF
:10575000CE014E960E943A18CE014E960E94C22368
:10576000CE014E960E94861864E474E080E697E0CD
:105770000E947C194AE06B85CE014E960E948B18E0
:10578000CE014E960E94C223CE014E960E948618EC
:1057900064E474E080E697E00E947C194AE06C853E
:1057A000CE014E960E948B18CE014E960E94C223C7
:1057B000CE014E960E94861864E474E080E697E07D
:1057C0000E947C198D859E851CAE1BAE1EAE1DAE43
:1057D00021961FAE1EAE21974AE0BE01625E7F4F4A
:1057E0000E94BC31BE01625E7F4F892D982D0E94C0
:1057F0006518892D982D0E94C223892D982D0E940D
:10580000861864E474E080E697E00E947C196F8556
:10581000CE014E960E94B818CE014E960E94C22329
:10582000CE014E960E94861864E474E080E697E00C
:105830000E947C196889CE014E960E94B818CE014C
:105840004E960E94C223CE014E960E94861864E4B2
:1058500074E080E697E00E947C196989CE014E963B
:105860000E94B818CE014E960E94C223CE014E96D9
:105870000E94861864E474E080E697E00E947C1938
:105880004AE06A89CE014E960E948B18CE014E9650
:105890000E94C223CE014E960E94861864E474E0F2
:1058A00080E697E00E947C194AE06B89CE014E9613
:1058B0000E948B18CE014E960E94C2236AE374E0C8
:1058C00080E697E00E94D818CE014E960E94861876
:1058D0000F5F1F4F85E1C80ED11C1CCF21115AC08C
:1058E0008091FF0790910008DC01ED91FC9102840A
:1058F000F385E02D1995982F80914E04882309F4A3
:105900006FC0933209F453C080914D04E82FF0E04A
:10591000E150F84F918B8F5F80934D0420910E08DA
:1059200030910F0890E0821793071CF021502093CC
:105930004D04809118088823E1F04091130880916C
:10594000140890911108909301082091120830E0FA
:10595000309303082093020890E0982F8827840F43
:10596000911D9093050880930408809115088093F9
:1059700006088091FF0790910008DC01ED91FC91F1
:105980000084F185E02D1995209118081816190644
:105990000CF4A4CF10921808211127C00E94E5161C
:1059A0006EE170E080E090E00E945D27E2CF10920F
:1059B0004E0410924D0480911908882331F0909183
:1059C000100880910908981303C0F0921808B1CF0D
:1059D000D801EE2D1D92EA95E9F710921808A9CF8B
:1059E000913239F6F0924E04C4CF82E00E945323E4
:1059F0006DE374E08FE690E10E947C1981E00E94E3
:105A000053234091060850E060E070E02AE08FE602
:105A100090E10E94ED18609101088FE690E10E94EC
:105A2000D11880910208909103080E948E238091E2
:105A30000408909105080E948E23B0CFA8E6B0E03C
:105A4000283008F4D2CBE0E0F0E0D1CBCF92DF9267
:105A5000EF92FF92CF931092FE061092FD0698EE01
:105A6000C92E93E0D92EE12CF12CC092FF06D092E2
:105A70000007E0920107F092020788EA92E0909313
:105A8000FC068093FB068AE293E090939B10809340
:105A90009A1010929C1010929D1010929E101092CD
:105AA0009F101092630710926207C0926407D09211
:105AB0006507E0926607F09267072AEB32E03093C1
:105AC00061072093600725EC30E030936D07209349
:105AD0006C0724EC30E030936F0720936E0720ECC6
